{
  "contractName": "Vote",
  "abi": [
    {
      "inputs": [],
      "stateMutability": "nonpayable",
      "type": "constructor"
    },
    {
      "anonymous": false,
      "inputs": [
        {
          "indexed": false,
          "internalType": "address",
          "name": "caller",
          "type": "address"
        },
        {
          "indexed": false,
          "internalType": "uint256",
          "name": "choice",
          "type": "uint256"
        }
      ],
      "name": "Voted",
      "type": "event"
    },
    {
      "inputs": [],
      "name": "TotalBidenVotes",
      "outputs": [
        {
          "internalType": "uint256",
          "name": "",
          "type": "uint256"
        }
      ],
      "stateMutability": "view",
      "type": "function"
    },
    {
      "inputs": [],
      "name": "TotalTrumpVotes",
      "outputs": [
        {
          "internalType": "uint256",
          "name": "",
          "type": "uint256"
        }
      ],
      "stateMutability": "view",
      "type": "function"
    },
    {
      "inputs": [
        {
          "internalType": "uint256",
          "name": "choice",
          "type": "uint256"
        }
      ],
      "name": "vote",
      "outputs": [],
      "stateMutability": "nonpayable",
      "type": "function"
    }
  ],
  "bytecode": "0x608060405234801561001057600080fd5b506000808190555060006001819055506102388061002f6000396000f3fe608060405234801561001057600080fd5b50600436106100415760003560e01c80630121b93f1461004657806398448cdd14610074578063ab23a28014610092575b600080fd5b6100726004803603602081101561005c57600080fd5b81019080803590602001909291905050506100b0565b005b61007c61016e565b6040518082815260200191505060405180910390f35b61009a610174565b6040518082815260200191505060405180910390f35b60008114156100da576100cf600160005461017a90919063ffffffff16565b600081905550610100565b60018114156100ff576100f86001805461017a90919063ffffffff16565b6001819055505b5b7f4d99b957a2bc29a30ebd96a7be8e68fe50a3c701db28a91436490b7d53870ca43382604051808373ffffffffffffffffffffffffffffffffffffffff1673ffffffffffffffffffffffffffffffffffffffff1681526020018281526020019250505060405180910390a150565b60005481565b60015481565b6000808284019050838110156101f8576040517f08c379a000000000000000000000000000000000000000000000000000000000815260040180806020018281038252601b8152602001807f536166654d6174683a206164646974696f6e206f766572666c6f77000000000081525060200191505060405180910390fd5b809150509291505056fea264697066735822122053c6a87986cf19c443d56cff3d58ebebfea646692ac0aea6ebb1b1bd070fa07864736f6c63430006080033",
  "immutableReferences": {},
  "source": "// SPDX-License-Identifier: UNLICENSED\npragma solidity 0.6.8;\n\nimport \"@openzeppelin/contracts/math/SafeMath.sol\";\n\n\ncontract Vote {\n    using SafeMath for uint256;\n\n    uint256 public TotalTrumpVotes;\n    uint256 public TotalBidenVotes;\n\n    event Voted(address caller, uint256 choice);\n\n    constructor() public {\n        TotalTrumpVotes = 0;\n        TotalBidenVotes = 0;\n    }\n\n    function vote(uint256 choice) public {\n        if (choice == 0) TotalTrumpVotes = TotalTrumpVotes.add(1);\n        else if (choice == 1) TotalBidenVotes = TotalBidenVotes.add(1);\n        emit Voted(msg.sender, choice);\n    }\n}\n",
  "sourcePath": "/Users/brenfife/Desktop/voted/contracts/Vote.sol",
  "compiler": {
    "name": "solc",
    "version": "0.6.8+commit.0bbfe453.Emscripten.clang"
  },
  "schemaVersion": "3.1.0",
  "updatedAt": "2020-05-17T22:37:10.384Z",
  "devdoc": {
    "methods": {}
  },
  "userdoc": {
    "methods": {}
  }
}